:400000000080002011000000150700001507000010B500F09FFBC04670B512222F4B1A6000F010FD2E4801F003FE012000F02AFD302000F021FC2B4A2B4B1A602B4C8025BA
:40004000ED0525602A4A116802230B431360294A294B1A600022294B1A60294A136808218B431360FA20C00000F0B8FC254800F0F9FBBE22D201244B1A60244B244A1A60AB
:4000800080214900234A1160234A1A6088218901224A1160224A1A6080221206214B1A608022D202204B1A604222204B1A6040231F4A13601F4A13601F4A13601F4A136084
:4000C0001F4A136041221F4B1A601F49082000F09FFB082000F090FB256070BD30001040001BB7000600008004010B400C020B4078002E402D3E00007C002E4064F02E40F0
:400100006CF02E40DC050000080301400000014042FF00800003014040FF00800403014041FF008008010B4000010B403801014030010140280101402401014020010140FD
:400140001C010140040101409D0B000070B572B60022434B1A600132424B1A7000240FE041486200131959000B00411889881A5AC31858880004104300F0C2FA0134E4B27D
:40018000032CEDD9002414E0374EA20011194B00F318198B588B000408439D8BD98B0904294313195A00B218128C00F0AFFA0134E4B2012CE8D92C492C312C48443000F0C6
:4001C00075FAEE2212062A4B1A6099231B04294A1360294A29490A6029490A60294A1360294A1360294A13609621C903284A1160284A1360B4229203274B1A600E23274A97
:400200001360274A136027490B783C22934314221343DBB20B70244A117816230B43DBB213701F22214B1A60214A224B1A602023214A1360C4218902204A1160204A13605C
:400240000F22204B1A60204B20490B6020490A60204A1360FFF7E0FE00F042FA70BDC0466CF02E401C700F40E85E0100686101000000024000010240333300000002024061
:400280000003024000500F4010500F4020500F4028500F4030500F4038500F402000104000800F4001700F4000700F40000004409224DB000800044000010440080104400E
:4002C0001801044000020440B60D000008020440000304400803044010B5064C2378002B07D1054B002B02D0044800E000BF0123237010BD7013002000000000545E0100ED
:40030000084B10B5002B03D00749084800E000BF07480368002B00D110BD064B002BFBD09847F9E70000000074130020545E0100400E0020000000000122014B1A70704767
:400340008C13002010B5012801D0282802D1002001F0FCF910BDC04610B54B681B681B78002B03D10F2001F071F908E0012B03D1002001F06BF902E00C2001F067F910BD63
:4003800010B504000A2000F08DFC0D2000F08AFC200000F015FD0A2000F084FC0D2000F081FC10BDF8B501272AE0781E0001194B181800F005FD184800F002FDFEB23000E0
:4003C00000F0F4FD400882B2144D154C2900200001F028FF200000F0F3FC202000F062FC300000F0DBFD400882B22900200001F019FF200000F0E4FC0A4800F0E1FC0137E3
:40040000042FD2DD0A2000F04DFC0D2000F04AFCF8BDC046440E0020D85E0100605E010080250020645E010070B50500002417E063005A5F91B20C4BCB189BB20B48834226
:4004400006D8490089B2601CC0B200F005FD06E0002A04D1601CC0B2002100F0FDFC0134032CE5DD70BDC04617FCFFFF140D000070B5314B1B785BB2002B5BD0702806D1CC
:4004800000222E4B1A702E48FFF77AFF52E0732803D10122294B1A704CE0782809D12948FFF76EFF0122284B5A70012001F0C2F840E07A2809D12548FFF762FF0022224BDB
:4004C0005A70002001F0B6F834E020280CD120490023CB565C001F4A15881F48255201330B700023138025E00D2815D1184B1B785BB2032B04D15B00164A1188164A995223
:400500001548FFF791FF0022124B1A80104B1A700A2000F0C7FB0DE00300303BDBB2092B08D80C4A11888B00CB185B009BB218183038108070BDC0467D2500207C2500201F
:40054000685E0100785E01008C1300208C5E010070250020722500207425002030B583B062B600F00BFD00F07FFB424801F092F8414801F065F9414801F04EF80022404B32
:400580001A80404B1A7001233F4A13703F4A137008223F49684601F034FE6846FFF744FF02F09EFA00F0F6FB0400C0B2612811D10023364A1370344A13703648FFF7E0FE21
:4005C0003548FFF7DDFE0122344B5A70012001F031F80AE06D2806D101222C4B1A703048FFF7CEFE01E0FFF743FF274B1B785BB2002B05D0032000F01DF9FFF7D3FE03E054
:40060000FF20204000F04EFB244B1B785BB2002BC6D0002001F00EF8FA2000F00BF91F4B00221A705B785BB2002B02D0012001F001F8164B1B785BB2002BB1D11948FFF70A
:400640009FFEFFF7AFFE154C02202056164D2B004033C0001818FFF7E7FEA37801335BB2A3706022AA5E013A934299DD00220B4B9A7095E745030000590300003903000018
:4006800072250020702500207C2500207D250020585E0100A05E0100785E01008C130020C05E0100DC5E0100440E0020F0B50025002711E0BB00C658F3B2FF22964308E0F1
:4006C0006A008A181478A419527822700135013BDBB2002BF4D10137092FEBD9F0BDC0460323044A1360044A13600022034B1A607047C0463000304030003140000E3F4056
:4007000010B50A00002101F085FD10BD10B501F078FD10BD10B501F039FD03680C2B00D1FEE7FEE710B50300084A1068C318084A9A1A802A02DC054A136005E001F026FDB2
:400740000C2303600120404210BDC046A80E0020E825002070B50F4E0F4D13E029686B68AC68002202E001C901C30432A242FAD1E868002202E0002102C304328242FAD1AF
:400780001035013E002EE9D101F006FDFFF7E6FEFEE7C046010000001465010010B50E4A136801218B43136000230AE0032B03D89A000A49505800E009489900094A8850FE
:4007C00001332F2BF2D9FFF7C1FC034A116801230B43136010BDC04600001040000000001507000000000020024B1B68012018407047C0460C002E401F2318401E3B8340AD
:40080000014A13607047C04600E100E001BE704770B504000D001F2802D90020FFF7F6FF1034A40080239B059C4664442068256070BDC04610B5040006E0084B586801F0FB
:40084000F7F9074B9C46644480231B029C42F4D8024B9868604301F0EBF910BDAC0E00200080FFFF10B5034B1B7B584301F0E0F910BDC046AC0E0020F0B557464E46C0B453
:4008800083B0040001F0DDF90190E71E2D2F74D83F4B1B78DBB29C4208D83E4B1B78DBB29A463D4B1B78DBB2994631E03B4B1B78DBB29C4208D83A4B1B78DBB29A46394B06
:4008C0001B78DBB2994623E0374B1B78DBB29C4208D8364B1B78DBB29A46354B1B78DBB2994615E0334B1B78DBB29C4208D8324B1B78DBB29A46314B1B78DBB2994607E066
:400900002F4B1B78DBB29A462E4B1B78DBB299462D4BDE5D2F2E09D92A2C07D919222B4B1A60052001F084F9192503E0274B1D683F231D40B54206D9234BDA5D234B1A60A5
:40094000052001F075F91F4B9C4664442378DBB21F4A13601F4B52461A601F4B4A461A600520FFF77FFFB5420AD2174BDA5D174B1A60052001F05CF902E00020FFF746FF82
:40098000019801F062F903B00CBC91469A46F0BD40F3FF0F41F3FF0F42F3FF0F43F3FF0F44F3FF0F45F3FF0F46F3FF0F47F3FF0F48F3FF0F49F3FF0F4AF3FF0F4BF3FF0F25
:4009C0004CF3FF0F4DF3FF0FD46201002CFF0B4028FF0B401CFF0B4020FF0B4010B504000F4A116801230B4313600E4A0E4B1A600E4A1368802109020B431360002809D180
:400A000000200CE00120FFF72DFFFFF7EDFE002804D1013C002CF5D1102000E0002010BD60F02E400220000078002E4010002E40034B1868C0231B02184000D0012070474B
:400A400000010B4010B50D4B1A6801218A431A601A68022082431A60094A10683024A043203C204310601068093CA043014311601A68802109060A431A6010BD00F02E4095
:400A800000FF2E4070B51D4B1B6801241C40002802D0012816D02BE0184B19680122914319601968022081431960154B19682E3081432038014319601968093881430A4305
:400AC0001A6018E00D4B1A6802218A431A600C4A10680725A84301431160116830208143103801431160196801220A431A6002E00020FFF78BFE200070BDC04600F02E407F
:400B000000FF2E4010B501F09CF8044A1368C02109020B43136001F098F810BD00010B4010B501F08EF808490A68084B1A408024E40122430A600A68134080221202134319
:400B40000B6001F082F810BD00010B40FF3FFFFF70B5050001F075F80400FFF769FF002803D0FFF7DDFF012100E0002108482840084A1568084B2B401843106013680129BB
:400B800001D1FFF7BFFF200001F05FF870BDC0460404040010020B40FBFBFBFF10B5244B1B685B0715D5234B5B685B070ED5224B596A042001401F4C62688A4362605A6A25
:400BC00082435A629B69002B00D098470420FFF7BFFF174B1B685B0518D5164B5B685B0510D5154B596A8022D2001140114842688A434260596A114A0A405A62DB69002B36
:400C000000D098478020C000FFF7A2FF084B1B685B030CD5074B5B685B0304D5064B1B6A002B00D098478020C002FFF791FF10BD10020B40C00E002090130020FFFBFFFF42
:400C400010B500F091F810BD10B500F039F810BD10B5044A1368802109060B431360FFF7EFFF10BD0000244010B5064B1B78002B04D1FFF7E9FF0122024B1A70FFF7E8FF44
:400C800010BDC046B8130020014B18687047C04640032440024B1B681F2018407047C04608032440044B1B681F221340082BF9D0024B18607047C0460802244040022440BB
:400CC000154A164B1A600023154A13601549164A1160164A16490A6007201649086016490B6006381549086015490A60154A13600421154A1160154A1360154A1360154A1F
:400D00001360154A1360154A1360154A13601268144B1A807047C0460B000002000024404000244001000A0048002440070000800003244004032440100324404400244056
:400D4000000224400402244050002440880E2440C80E2440480F2440080F2440C80F2440880F2440BA130020064A1168064B0B40902109040B431360044B1A88044B1A60C4
:400D80007047C04600010240FFFF0FFFBA130020880F244010B5FFF77DFF002802D0FFF773FF00E00020054B1A68D8239B001A4203D01A00014B1A60002010BDC00F24400F
:400DC00070B50500002402E0FFF76CFF0134285D0028F9D170BDC04610B500F093FA00F0F1FA00F053FB00F0B5FB2122064B1A7000F027FF054A117810230B43DBB21370EB
:400E000000F023FF10BDC04670000F4090000F40014B18807047C046BC130020014B18887047C046BC13002010B5040004280ED80B01591A8801064901F032F8F0239B000C
:400E4000984204D8013CA400024BE358186010BD1027000004630100042803D801384000014BC1527047C04694250020F8B500F061FA00F0BFFA00F021FB00F083FB0024BB
:400E800019E02600A3002D4AD3181B69F02292001A600134E4B22A4FF500AA1B5300FB1899892000FFF7C0FFAD1B6B00FB1859892000FFF7D1FF032CE3D900F0C2FE214BFC
:400EC00019880222FF320A431A801988FE220A401A8000F0BAFE3C221B4B1A70323A1B4B1A70F0321A4B1A70F93A1A4B1A700F20FFF78EFF002418E000F0A3FE6300802188
:400F00008901154A99521549154A99521549164A9952A3000021154A9950F0218905144A995000F092FE0134E4B2032CE4D9114800F084F9104800F0B1F9F8BD046301008E
:400F4000C80E002020110F4023000F4033000F4022000F4032000F40AC2500209AE9FFFF8425002033030000B42500209C250020BC250020D90F00006D10000010B5064B4E
:400F80001B79002B04D1FFF771FF0122024B1A71FFF722FF10BDC046BC13002001384000014B185A7047C0469425002010B504280AD801384000064BC15A002906D0054892
:400FC00000F06EFF80B202E0002000E0002010BD8C25002080C3C9011E4B1A780F2313401D4A128892B258001C494252002A05D101329A401A49088802430A80002B02D0D3
:40100000013BDBB200E00323124A11780F20814311701278D1B2032B01D1802200E000221A430A430B490A70032B12D10D4A117808230B43DBB21370094B1B880A4A128800
:401040001A4206D0074A117880235B420B43DBB21370704772000F4080100F408C250020BE13002070000F40BC130020F0B557464E464546E0B4002591E02C006E00514B3E
:40108000F15A514800F00CFF504BF35A1B1A1BB24F4A934204DB80225201934202DC03E04B4B01E080235B014A4A9046A20094466700494AB95E594342466646B258914671
:4010C0004944B946C1444A461026925F9246434ABA5E5646724389184A461826925F404EBE5F56438A19414666467250494656460E830B823B4B6146CB589A4203DA6246A4
:401100004146535007E0A30037495B589A4202DDA20030495350A3002E4A9A58120D334959580B68324E3678760600D40A60F022920093420BD162002449525A904206D221
:401140002021244B1B195A5C01325A5417E0002B10D163001D4A9B5A98420BD91D4B1B1920229B5CFF2B0AD01A4A121901332021535404E0174B1B19002120229954154BC6
:401180001B1920229B5C102B07D9FFF747FE0123A340184080B20F4B98840135EDB2032D00D86AE70B4B9B8C9BB2002B05D0104A117810230B43DBB213701CBC904699466C
:4011C000A246F0BD8C25002080C3C9019425002000F0FFFFC4130020AC25002084250020B42500209C250020BC2500200463010070000F40014B98647047C04600000020DD
:4012000010B5040000F01DFD044A1168044B0B40A4051C43146000F018FD10BD00E400E0FFFF3FFF0422014B1A60704700E100E00422014B1A60704780E100E010B504001B
:40124000FFF7F6FF2000FFF7D5FF0320FFF7D8FFFFF7E8FF10BDC046014BD8647047C0460000002010B5040000F0EBFC044A13689B009B08A4071C43146000F0E6FC10BDD0
:4012800000E400E00822014B1A60704700E100E00822014B1A60704780E100E010B50400FFF7F6FF2000FFF7D7FF0320FFF7DAFFFFF7E8FF10BDC0460004000C014B186004
:4012C0007047C046480120400004000C014B18607047C046540120400004000C014B18607047C0464C01204070B504000D0000F0A8FCAC40024B1C6000F0A7FC70BDC046BF
:401300000800204010B500F09CFC064A116802230B43136000F099FC18210220FFF7E4FF10BDC04600002040014B18607047C0467801204010B50D4C8023DB042360236855
:4013400023600020FFF7B8FF236823600C22084B1A600020FFF7E8FF3122064B1A60FF20FFF7B2FF4020FFF7B7FF10BD4001204064012040680120400004000C014B186057
:401380007047C046C80120400004000C014B18607047C046D40120400004000C014B18607047C046CC01204070B504000D0000F048FCAC40024B1C6000F047FC70BDC0463E
:4013C0000800204010B500F03CFC064A116808230B43136000F039FC18210820FFF7E4FF10BDC04600002040014B18607047C046F801204010B50E4C8023DB0423602368C8
:4014000023600020FFF7B8FF236823600C22094B1A600120FFF7E8FF3122074B1A60074C2000FFF7B1FF2000FFF7B6FF10BDC046C0012040E4012040E8012040FFFF0000D1
:401440000004000C014B18607047C046880120400004000C014B18607047C046940120400004000C014B18607047C0468C01204070B504000D0000F0E4FBAC40024B1C6034
:4014800000F0E3FB70BDC0460800204010B500F0D8FB064A116804230B43136000F0D5FB18210420FFF7E4FF10BDC04600002040014B18607047C046B801204010B50E4CA8
:4014C0008023DB042360236823600020FFF7B8FF236823600C22094B1A600120FFF7E8FF3122074B1A60074C2000FFF7B1FF2000FFF7B6FF10BDC04680012040A401204048
:40150000A8012040FFFF00000004000C014B18607047C046080120400004000C014B18607047C046140120400004000C014B18607047C0460C01204070B504000D0000F080
:4015400080FBAC40024B1C6000F07FFB70BDC0460800204010B500F074FB064A116801230B43136000F071FB18210120FFF7E4FF10BDC04600002040014B18607047C04621
:401580003801204010B50E4C8023DB042360236823600020FFF7B8FF236823600C22094B1A600120FFF7E8FF3122074B1A60074C2000FFF7B1FF2000FFF7B6FF10BDC046B5
:4015C000000120402401204028012040FFFF0000014B58647047C0460000002010B5040000F02FFB044A1168044B0B40A4031C43146000F02AFB10BD00E400E0FF3FFFFFF9
:401600000222014B1A60704700E100E00222014B1A60704780E100E010B50400FFF7F6FF2000FFF7D5FF0320FFF7D8FFFFF7E8FF10BDC04604490A68D2B220239A43400184
:40164000184010430860704700000440014B18707047C04673000F4010B500F0EFF810BD10B50024064B1C70064B1C70064B1C70FFF7F2FF054B1C70054B1C7010BDC046AE
:40168000E3250020DC250020E2250020CC250020D425002010B590B00400142222490BA800F0AFFD2023214AD35C002B05D1FFF7D7FF012120231D4AD154002C30D01C4B69
:4016C0001C6008AC05AA099206AB089302212181193119805980173919710823137001F0F5F916216944200001F0D6FA002818D1104B0293104B0193052300930BABD8221C
:4017000012010E490E4801F01DFA002809D101220C4B1A70083212210B480FF0BBFF00E0012010B010BDC04624630100EC130020D02500207902000000730100C000002043
:4017400049190000DA2500203863010010B502282FD81C4B1B78042B2DD11B4B1B785B072CD4002809D1194B00221A862032596A0A805B6A10325A800CE001280AD1134BDE
:4017800096221A86C822D200596A0A805B6A8022D2015A800E4B18700C4820300DF0BEFB00280DD1084A117804230B43DBB2137006E0012004E00420FF3001E00420FF30A1
:4017C00010BDC046DA250020E3250020000F0020E22500207047C04603784078000218437047C04670B5050083890F2B1FD1043031332A0000210FF065FF041E11D16868F5
:40180000FFF7EAFF830706D50A4B1B68290082204000984705E0074B1B6829000620FF309847054A137801218B43137000E00024200070BDD0250020E32500207047C046F3
:40184000014B18607047C0461014002000B585B00F236B4400221A70123269460A81009301238B8000230022002168460FF02AFF05B000BD10B582B00400154B1B68002B35
:4018800023D08389122B20D10389012B1DD143681B78022B19D804304023220000210FF011FF002811D123886A4613800023937004340194064B1B686946BE20FF309847B6
:4018C000044A137801218B43137002B010BDC04610140020E325002010B5034B00225A701A70FFF7B3FF10BDE025002010B582B00400FFF777FF0A4B1B78DB070ED400284D
:4019000009D001A912238B70A3890B80C87020680EF058FC02E020680EF0CCFC02B010BDE32500208379002B07D000200BE0C25C002A07D10133DBB200E00023052BF6D968
:40194000002000E001207047F0B583B004000D00A44A117801230B43DBB21370282800D1D1E016D8212800D1A0E009D8052800D184E0062800D185E0012800D020E11FE0B3
:40198000262800D1C3E000D9B9E0242800D1AEE016E1432800D1FAE008D8412800D1DEE000D9F1E0312800D1A5E009E14E2800D1F9E0FA2800D1FEE04C2800D000E1EEE03C
:4019C00001AE0727377000237370300003F0B6F8377001237370300003F0B0F801F072F8814B1E683000FFF79DFF00280CD0300001F07AF87C4E00213068FFF7EBFE306813
:401A00000121FFF7E7FE2AE0784B1F78784B18788001FC263601020032403F2139401143744B1B781B03F822520213401943724B1B785B04FE22120413400B436F4E337004
:401A40001A0A72701B0CB370300001F04DF800213000FFF7BFFE01213000FFF7BBFE00200DF000F90222664901A800F0CAFB01A80DF016F90422634B1A70A1E02A78624B81
:401A80001A709DE02B78002B00D099E06B78002B06D15E4B0022DA809A805D4A1A606B60504A137801218B43137089E04D4B1B789B0600D584E0574B1B78102B02D1052288
:401AC000544BDA70544B187852490DF0E9F901AB1880002804D0514B1B6801A936209847404A117801230B43DBB2137068E06A784B4B1A7064E00222424B1A7060E0022254
:401B0000404B1A705CE004223E4B1A7058E03D4B1B78022B54D0334A1278D20750D5314A1278520708D50322364B1A702D4A137804218B43137043E02A4A1278120708D578
:401B40000422304B1A70274A137808218B43137036E0032B34D104222A4B1A7030E02E4E02222900300000F04CFB0022264B1A7031783D31FF3149002A4B5918013102321D
:401B8000294800F03EFB1BE0FFF7A6FE18E06988162900D9172128880EF01EFB10E02800FFF7A4FE0CE00F4B1B78DB0708D52800FFF760FE04E01D4A117801230B43137069
:401BC000084B1A7811231A4209D0064A137801218B431370114B1B6829002000984703B0F0BDC046E3250020340F00207CF2FF0F7DF2FF0F7BF2FF0F78F2FF0F380F0020FE
:401C0000A8640100DA250020DC25002014140020400E0020AC0F0020E0250020D0250020D425002000730100D8250020CC2500200230800803D00138FDD1C046C046C0462B
:401C40007047EFF3108072B6704780F31088704710B5FFF7F6FF044A136804218B43136030BFFFF7F2FF10BD10ED00E00160704701607047324B1A781202324B1B781A437B
:401C8000314B1B781B02314909780B4330498B4201D1072A06D0D42109018B4206D1042A04D102E02B4B042200E02A4B2A490B602A4B1A602A4B1B781B022A4A12781343D1
:401CC00080229201934202D0002B02D002E0264B00E0254B254A1360254B1B781B02254A12781343244A934205D0244A934204D0052B05D103E0224B02E0214B00E0204BF9
:401D0000204A1360204B1B681B09204A1268AA2A15D1012B13D9164B1B780E2B0FD11C4B1B781B021B4A127813431B4A13601B4B1B781B021A4A127813431A4A13607047D5
:401D400059F1FF0F58F1FF0F5FF1FF0F5EF1FF0F580B0000580D00006C002E4074002E405BF1FF0F5AF1FF0F0220000078002E405DF1FF0F5CF1FF0F0F0F000005050000DB
:401D8000050F000080002E40EC0F00F0E00F00F06DF2FF0F6CF2FF0F84002E406FF2FF0F6EF2FF0F94002E4010B5FEF75BFD10BD10B5FEF73FFD10BD10B500F04FF810BD42
:401DC00010B500F053F810BD10B500F04FF8034800F02EF8032000F031F810BD991E000010B5024800F04AF810BDC046991E000000487047020200002B2070472B20704727
:401E00002B2070472B2070472B2070472B2070472B2070472B2070472B2070472B2070472B2070477047C0460120704701207047014B18677047C0460000002010B50400B2
:401E4000FFF7FFFE044A1368C0218B43A4011C431460FFF7FAFE10BD0CE400E080225201014B1A607047C04600E100E080225201014B1A607047C04680E100E010B5040039
:401E8000FFF7F4FF2000FFF7D3FF0320FFF7D6FFFFF7E4FF10BDC04610B513F0C7FF10BD002243088B4274D303098B425FD3030A8B4244D3030B8B4228D3030C8B420DD34D
:401EC000FF22090212BA030C8B4202D31212090265D0030B8B4219D300E0090AC30B8B4201D3CB03C01A5241830B8B4201D38B03C01A5241430B8B4201D34B03C01A52419D
:401F0000030B8B4201D30B03C01A5241C30A8B4201D3CB02C01A5241830A8B4201D38B02C01A5241430A8B4201D34B02C01A5241030A8B4201D30B02C01A5241CDD2C3096C
:401F40008B4201D3CB01C01A524183098B4201D38B01C01A524143098B4201D34B01C01A524103098B4201D30B01C01A5241C3088B4201D3CB00C01A524183088B4201D3C5
:401F80008B00C01A524143088B4201D34B00C01A5241411A00D20146524110467047FFE701B5002000F0F0F802BDC0460029F7D076E7704703460B437FD4002243088B42F0
:401FC00074D303098B425FD3030A8B4244D3030B8B4228D3030C8B420DD3FF22090212BA030C8B4202D31212090265D0030B8B4219D300E0090AC30B8B4201D3CB03C01A2E
:402000005241830B8B4201D38B03C01A5241430B8B4201D34B03C01A5241030B8B4201D30B03C01A5241C30A8B4201D3CB02C01A5241830A8B4201D38B02C01A5241430AF2
:402040008B4201D34B02C01A5241030A8B4201D30B02C01A5241CDD2C3098B4201D3CB01C01A524183098B4201D38B01C01A524143098B4201D34B01C01A524103098B42F3
:4020800001D30B01C01A5241C3088B4201D3CB00C01A524183088B4201D38B00C01A524143088B4201D34B00C01A5241411A00D201465241104670475DE0CA0F00D04942E2
:4020C000031000D34042534000229C4603098B422DD3030A8B4212D3FC22890112BA030A8B420CD3890192118B4208D3890192118B4204D389013AD0921100E08909C30901
:402100008B4201D3CB01C01A524183098B4201D38B01C01A524143098B4201D34B01C01A524103098B4201D30B01C01A5241C3088B4201D3CB00C01A524183088B4201D303
:402140008B00C01A5241D9D243088B4201D34B00C01A5241411A00D20146634652415B10104601D34042002B00D54942704763465B1000D3404201B5002000F005F802BD24
:402180000029F8D016E770477047C046014B18687047C046681300200E4B70B500251E000D4CE41AA410A54204D0AB00F35898470135F8E714F09CF9084B00251E00084CA5
:4021C000E41AA410A54204D0AB00F35898470135F8E770BDFC640100FC640100FC6401000465010030B50024A24208D0035D651C0C5DA34201D0181B02E02C00F4E70020CD
:4022000030BD002310B59A4203D0CC5CC4540133F9E710BD03008218934202D019700133FAE770470EB410B59DB002A9029008610B48822488604861012040421FABC881A6
:40224000084804CBA400006801938C8100F06EF80023029A13701DB010BC08BC03B01847FFFFFF7F68130020F0B58E6885B007000C00039201939E4243D890238A89DB00CC
:402280001A423ED003250969236801985B1A029363695D43EB0F5D19029B6D1001331B18AB4200D91D00530510D52900380000F037FB061E14D0029A2169FFF7A2FFA289FC
:4022C000194B134080221343A38112E02A00380000F086FB061E0CD12169380000F0D4FA0C23402201203B60A38940421343A38117E0029B2661F61826606561019EED1A35
:40230000A560019BB34200D21E0032000399206800F0A5FA0020A3689B1BA36023689E19266005B0F0BDC0467FFBFFFFF0B59FB0029005938B890F0016001B0610D50B69D5
:40234000002B0DD1402100F0EBFA38603861002804D10C23029A01381360D8E040237B61002306AD6B6120336B761033AB7634002378002B03D1A31B049312D003E0252B10
:40238000F9D00134F4E7A31B320039000298FFF76BFF431C00D1B4E06A69049B944663446B612378002B00D1ABE00122002352426A6002A95432521801342B60EB60AB6027
:4023C0001370AB65534E21780522300000F03CFA002807D00123801B83402A68013413432B60EFE72B68DA0604D55322202102A8121811701A0704D553222B2102A81218AE
:40240000117022782A2A03D0099B00200A210EE0059A111D12680591002A01DB099204E05242EA60022213432B6001340BE02278303A092A04D84B4301349B180120F6E791
:40244000002800D0099323782E2B1ED163782A2B0AD1059B02341A1D1B680592002B01DA01235B42079310E000230A201A0001346B6021783039092904D8424301345218C7
:402480000123F6E7002B00D00792234E21780322300000F0D9F9002806D04023801B83402A68013413432B60217806221B48661C297600F0C9F9002812D0194B002B06D198
:4024C0000722059B073393430833059314E005AB00933A00134B2900029800E000BF07E005AB00933A000F4B2900029800F08AF80390039B013304D06B69039A9B186B61E3
:4025000035E7BB890B985B0601D5012040421FB0F0BDC046BA640100C0640100C46401000000000069220000F7B5170001938A680B6900900C00934200DA130022003B606C
:4025400043321278002A01D001333B6023689B0602D53B6802333B60062523681D401ED0230043331B785A1E9341226892061CD53020E1184331087021005A1C45310978CD
:40258000A2184332023311700FE022000123193201990098089EB047431C0ED00135E3683A689B1A9D42F0DBDAE72200019943320098089DA847431C02D10120404220E035
:4025C00006232068E1683A6803400025042B03D18D1AEB43DB171D40A3682269934201DD9B1AED180027BD420AD0220001231A3201990098089EB047431CDED00137F2E72E
:402600000020FEBDF0B58BB006920A0043320793059004920A7E0C00109B6E2A00D1ABE011D8632A22D009D8002A00D1B5E0582A00D0C5E045310A70814A4FE0642A1DD09B
:40264000692A1BD0BCE0732A00D1AAE009D86F2A29D0702A00D0B3E0202209680A43226037E0752A1FD0782A33D0A9E00E001A684236111D196013683370A4E021681A6827
:40268000080606D4490604D5111D19600023D55E02E0111D19601568002D3BDA2D23049A6D42137036E021681A68080606D4490604D51568111D1960ADB202E0111D196068
:4026C00015685F4B227E039308276F2A1DD00A271BE022007821453211705A4A19680392081D226818600D68100602D4500600D5ADB2D30702D520231A4322601027002DE6
:4027000003D1202322689A4322602300002243331A7002E00A274A4B03936368A360002B09DB0422216891432160002D05D1049E002B11D07BE0002D79D0049E28003900B0
:40274000FFF734FC039B013E5B5C280033703900FFF7A6FB051EF1D1082F09D12368DB0706D563682269934202DC3023013E3370049B9B1B23612BE009681A68080607D4C8
:40278000490605D5111D19601368A28A1A8004E0111D1960136862691A600023049E236116E01A68111D1960166800216268300000F04AF8002801D0801B6060636803E088
:4027C000260042363270012323610023049A1370079B09AA00932100069B0598FFF7A4FE431C02D10120404227E02369320006990598079DA847431CF4D0236800259B07F0
:402800000FD4099BE068984217DA180015E022000123193206990598079EB047431CE1D00135E368099A9B1A9D42F0DBE9E72600039B42361B7833708EE70BB0F0BDC046D0
:40284000CB640100DC640100C9B28218904204D003788B4202D00130F8E70020704710B5884202D98B18984201D3002305E09B1A013A08D3995C8154FAE7934203D0CC5C22
:40288000C4540133F9E710BD70B50500002944D00C1F2368002B00DAE418280000F0D8F81E4A13681100002B02D16360146031E0A3420DD92268A018834203D118685B68F6
:4028C0008218226063600C6024E0A24203D813005A68002AF9D11E689819A0420BD12168711858181960824214D110685268411819605A600EE0A04202D90C232B6009E05C
:4029000021686018824203D1106852684118216062605C60280000F09CF870BD6C250020032370B5CD1C9D43083506000C2D01D20C2501E0002D01DBA94202D90C233360E4
:4029400048E0300000F084F8234B1C681A002100002913D00B685B1B0DD40B2B02D90B60CC181EE08C4202D1636813601AE04B6863600C0016E00C004968E9E7174C236866
:40298000002B03D1300000F051F820602900300000F04CF8431C18D00323C41C9C43A0420DD12560300000F054F8200007220B30231D9043C31A0ED05A42E2500BE0211A7F
:4029C000300000F033F8431CEBD10C233000336000F03FF8002070BD6C25002068250020F8B506000C001500002904D11100FFF797FF040018E0002A03D1FFF745FF2C00DE
:402A000012E000F027F885420ED929003000FFF787FF071E07D021002A00FFF7F2FB21003000FFF731FF3C002000F8BD002370B5064C050008002360FDF774FE431C03D19D
:402A40002368002B00D02B6070BDC046E4250020704770470B1F1A68101F002A04DA891804390B68D018043870470000134A1088810703D08107890F401A001D11791030BB
:402A8000484381B25088820703D08207920F801A001D800040180A494030098980B2CA0701D0503080B2890706D504495422091F09785143081880B270470000B80F002035
:402AC0002814002010B501F017FF10BD10B501F0D5FF0BF02BFF10BD10B501F013FF10BD10B500F05BFA10BD10B50749044609780220002907D1204601F060FF002802D145
:402B000020460CF0B3F910BD5411002070B504460120002C12D02368002B0FD0616800290CD0074D06222889208118462968FFF768FB6968606809780170002070BD000046
:402B400028140020FFB585B0002768460E9D07734F481C460078002802D0082009B0F0BD10990F9801900095029105A807C800F007F90028F2D16946264603AB84460873AF
:402B8000002C19D0002115E08A00B75A082F09D990198078002805D0083FB7521878401C187005E0002914D00027B75290198770491CC9B2A942E7D360460028CED10F9879
:402BC000002809D0109901F047FA002804D00120C4E701208446EFE701F094FE2D480021416081600599016021888180022D07D3A1798171A17AC171A1890181218A4181B1
:402C000000211EE0481C19E082008B00A75AE65ABE46BE4211D26F463E80B4461E190296B678BE7001967646E6521719029EBB78B3706646A652019EBE70401CA842E3D32D
:402C4000491CA942DED3134822460C3000906846037B0799069800F01BF90028B8D168460B4C007B60700B480C3001F087FE0028AED1084907480C3109F062F90028A7D1D8
:402C800009F07CF90028A3D10121217066E70000B20F00201C140020F8B5054636480F460078002802D002242046F8BD002F60D000243249002D16D02A89D0070DD0286853
:402CC000002808D003881B3BE12B04D24088FB2801D81B2801D2012409E0900707D56868002804D1F7E70020088108604860002CDAD122482E8906811F481B21801D018012
:402D00004180042101711C490020891C0870F00705D019480622801D2968FFF772FA1749B00703D56A68144812788270124D0E46AD1D281F0D60486001F066FE284601F08E
:402D400055FE30890FF0CEFD30890EF0B7FF28880EF0BAFF30890FF02FFF03461033FFF785FE1F21C018890140183880A91F88809AE7012498E70000B20F002028140020DA
:402D8000FFB58446384F1C460020BB883F78054602460646002F11D100290ED0029999420BD36146002908D0002C06D00A99002906D02E4B0B99994202D2012004B0F0BDAD
:402DC000002144E0AB001F19BF78002F3BD0E35A002B38D07B43591889B22B0000F04AF8050410161C253100A7782388BC46FF27233BEB37BB4222D26346032B1FD322E034
:402E0000A388002B1FD0302B19D31CE02389002B19D0282B13D316E0A289002A13D01346134F233BBB420AD20DE0268A002A0AD033460F4F233BBB4201D2964203D9012076
:402E40000EE0002001E000280AD16D1CEDB2099B9D42B7D31C2463435B1802998B42ACD89642AAD8AAE70000B20F002079020000BAFF000030B47446641E2578641CAB42BC
:402E800000D21D46635D5B00E31830BC18470000FFB583B0002469460C801F4606468C80002806D00598002803D004983043800701D0012466E0002FFBD03449049809886D
:402EC0008842F6D3FEF78CFFFEF77AFF00F016FC002855D100F07EFD002851D12C49084601F0EEF805042D0C4AD12A480499066081800021C18007810C98007AC00704D03C
:402F0000684601F018FD040007D10C98007A800703D501A801F024FD0446BF1DFEB2002C20D13146059800F05DF804001AD10FF051FE040016D16A46108892880836851818
:402F4000144AF1B29088D288AEB29319984207D3401B801A80B201F0A3FB050007D000E0FF25012400F062FA002D04D008E0F8B200F01CF9F6E700F085FA0749012008704A
:402F800000F0CEFB204607B0F0BD0000B60F0020D130000034140020BE0F002010B503480078012801D101F01DFA10BDBE0F002070B5084B0446DA889E8803205518B5423D
:402FC00006D8186880182060D8884018D880002070BD000034140020014800897047000034140020F0B587B007460D4600208900009006916846FFF7DBFF844600285DD1BB
:40300000304800990160002117E02E4B88001A680629115406D22C4C0419667882185670628805E0C419203CA67A8218567022891B68C018491C4280C9B2A942E5D300244D
:403040002DE0601CC2B2059025E01E4FA30039689600581840887118039604904E88B04217D938466F46FE80B6464F786E4677710297049F4F800168039F5E1876787918B1
:403080004E700168764659184E800068029F18184770521CD2B2AA42D7D30598C4B2AC42CFD36046002809D168460699FFF780FF8446002802D1054900980860604607B0F9
:4030C000F0BD0000C00F002028650100C40F00207047000010B5002809D005494A68002A05D0011F08788000105801F087FA10BDC00F002010B50446FFF76EFFC0B2801D00
:40310000A0420CD307484068002808D0A100405801F0E6F9002801D00470001D10BD002010BD0000C00F0020F8B516460D460446FFF752FFC0B2801DA04203D20020C043C5
:403140000090F8BDB2B2E9B2684601F0EFF90099481C03D0024AA000526811500098F8BDC00F0020F8B50746FFF736FF801DC6B20A49002005460C680DE06178002907D03F
:403180006188B94202D32078FFF7B4FF002804D1241D6D1CEDB2B542EFD3F8BDC00F002010B5002801D0FFF795FF10BD70B506460948002504680BE06178002905D062883E
:4031C0002078121D0023FFF7AFFF241D6D1CEDB2B542F1D370BD0000C00F0020FFB581B00A9F16000C4620D000F0F6F8054604281BD0002F0CD03846FFF7B4FF20492A0115
:4032000051184860002810D03A460499FEF7F9FF1B4928010E504618778101980570200406D47D20C000444304E0FF2005B0F0BD6404640C00F0BEF80746042807D000F017
:4032400053FAA0420BD800F04FFA201A03E0204600F0AEFA0020F06035720020E6E700F043FA009000F0BAFA00980121001B009000F0F0F802493A0151180098C860E6E7CA
:4032800040140020F8B5042801D3FF20F8BD060116483418217A042903D0E068002802D017E00020F8BD00F01FFA054600F096FA00F0A0F804280CD001010C480F18F8687E
:4032C0000021451900F0C6F80020F860284600F06FFA6068054D002801D0FFF761FF042020720020A8516081E060DAE740140020FEB500266A4630460123254905016918BC
:403300000D7A042D02D0C96800291BD000211154401CC0B20428F0D300246846005D002830D01B48210108184189476805680291002101604160042241810272C160002E38
:4033400002D015E01354E3E700F054F804280ED001010F4808180190C6680021304600F079F801980021C160304600F021FA0126002D07D038460299A847002F02D03846D1
:40338000FFF70EFF641CE4B2042CC6D3FEBD0000401400200EB5002005216A4600901181508103486946006810F09BFA0EBD0000C80F0020074A0020010189180B7A042BCF
:4033C00002D0C968002903D0401CC0B20428F3D370470000401400200549002002015218127A042A03D0401CC0B20428F6D370474014002030B50A4B04200A4C00210A01AD
:403400001219157A042D06D0D268002A03D09A4201D808461346491CC9B20429EFD330BDFFFF0000401400207047000030B50020074C05460423020111190B72A5504D603D
:40344000401C4D81C0B2CD600428F4D330BD00004014002030B5094C00231A011219157A042D04D0D568002906D02D18D5605B1CDBB2042BF1D330BD2D1AF7E740140020C5
:40348000002070471CB5002469460C70142001902346054A054810F029FA04480068401C00D1FF2420461CBD01350000C80F00203EB5124A0146FF20002301241268002918
:4034C0000DD0012914D0042908D104206946009308814B81104610F004FA80B23EBD68460093048143816946104610F0F5F9F4E768460093048143816946EBE7C80F002045
:4035000070B545890468416800890300FFF7B2FC08280509091E22282628002007F0AEF91EE0022908D0C8B22A4621460EF01AFB2046FFF735FE13E002202A4621460EF0BA
:4035400011FB2946204600F00DF809E000200FF0C7FE05E02046FFF7CBFE01E0FEF762FC002070BD014B0022DB681847CC0F002070B5448905680089022803D0032809D029
:40358000FF2070BD2246094C0023A46829460120A04708E0FFF7A0FA241DA2B200232946022008F080FB002070BD0000CC0F00207047000002480021416001804180704724
:4035C000CC0F002070B50C46002186B016460391012802D0022859D116E003A9012008F0B7FB01281BD1039D324621462846FEF708FE0095287801900220694608814E816A
:403600006846FFF7B5FF41E0214D002B686809D0049004A9022008F09BFB01281DD0022006B070BD002812D0298840182146FEF7E8FD28880024801980B228806988091D11
:40364000884206D12C801348FFF792FF03E00320E6E788421AD96C6018E004986860E278A378110219430B4A698000231060E3565360032313815181A1788170E178C170A2
:403680006178417021780170042028800020C7E7CC0F0020801400203EB515460C46022803D004280CD000203EBD0091019002206946088107484A81006810F012F907E07D
:4036C0000EF050FA044B0022DB6829462046984701203EBDC80F0020CC0F0020014AD16090607047CC0F0020034801688068081A0A214843000970478C14002010B5FEF740
:4037000063FB4C2204490548FEF77BFD03490120C870002010BD0000446501009018002010B5FEF749FB10BD70B5134C2368002B08D0207B1149C20705D040084000207327
:403740008868A08070BD88680B4AA18880B29268814203D90A4D691A091802E0814202D2411A5118A160A080A0689842EAD310F0D5F800F013F870BD8C140020C0102E40E8
:40378000FFFF000010B508461946FFF7A7FF10BD704710B5FFF780FF10BD000003480021016041608160C160704700008C140020024610B5FF20002A0CD0FFF7EFFF064C23
:4037C0000321207B0843207310010A21FEF7EEFB2060002010BD00008C14002000B504480A21806848430209FFF7D8FF104600BD8C1400200248007B8007C00F70470000C9
:403800008C14002010B54B490868002802DA4A4B01221A70022290430860484800694549C00B4031096A0246C907C90F0A4259D0012000F097FA3F480E216C30FEF718FAC4
:403840003E4820218430FEF713FA3C4814219C30FEF70EFA3948FF21C131A430FEF708FA3648FF212F31B030FEF702FA33483449BC30FEF7FDF931483249AC30FEF7F8F997
:4038800030492E48491CB430FEF7F2F92B482E49B830FEF7EDF929482C49CC30FEF7E8F926482B490830FEF7E3F924482949A830FEF7DEF9214828498830FEF7D9F91F485E
:4038C00026498C30FEF7D4F91C481921C9029030FEF7CEF9FEF7CEF9FEF78AFAC0B2022812D01FE000290BD0002101420AD0114801216030FEF7BCF90120FEF759FA97E766
:403900000121F2E7FF2010BD15491648FEF7B0F914481549001DFEF7ABF9124800210830FEF7A6F954200449C043891C0870002010BD000000F02E40DC0F002000002E40EA
:40394000320300002F3F00003102000010520000EC160000FA12000031D000003AE300009956000080012E40F80F000070B50646581C80B245086D00002408E0304600F0BB
:40398000C1F81055000A1119A41C4870A4B2AC42F4D3D80705D0D0182038D15CC47FD454C17770BD30B50A4C002100195B1E07E0541864782502545C2C430480891C89B27A
:4039C0009942F5DB994201D1515C018030BD000000102E4010B5FF2000F0C4F90F49FF2048700E481021801D41800121417001700A490020C91C4870FFF704FF04000AD105
:403A000000F010F907210648FEF730F9044807211830FEF72BF9204610BD0000DC0F0020CC112E4070B5002405465B1E0AE0284600F068F8010A161971702D1D1055A41C5C
:403A4000ADB2A4B29C42F2DB9C4203D1284600F059F8105570BD000070B500210A4D5B1E0AE0541864782602545C344346193480001D891C80B289B29942F2DB994202D1C4
:403A8000515C4019018070BD00102E40F0B50599091FCFB200217E1E0BE0541864782502545C2C43164D45192C80001D891C80B289B2B142F1DBFC0712D01C78515C24020B
:403AC0000F4A0C4381180C809C785D78001D210280B2294384182180001D80B2D9780CE059781A7809021143054A84182180001DD9789B78090280B2194380180180F0BD3B
:403B000000102E40014940180088704700102E4010B50B490020487000F084F8002000F047F9002000F034F907210648FEF79EF8044807211830FEF799F8002010BD00008E
:403B4000DF0F0020CC112E4010B50B46062812D006DC01280CD0032801D1FFF7D9FF10BD0A28FCD00B28FAD105480078107010BDFFF730FF10BD1146184600F035F910BDA7
:403B8000E20F0020F8B5244DAC6A0127A007234E002816DA307806280ED1286A384328621F480069F903084381B21D481030FEF75FF8042000F0D6F8174802212830FEF730
:403BC00055F8E00718D000F061FF01280FD1002000F0AEFF062000F0C5F81049FF20C91E48707078002802D1686B384368630A4801212830FEF73AF8E0050BD53078042821
:403C000002D1052000F0AEF80348FF2101312830FEF72CF8F8BD000040F02E40DF0F002000002E4010B503212348FEF721F80120FEF7BAF820483038406A204C80076178A9
:403C4000800F890001431C480C38FEF711F86078002808D0401E022181401820FEF790FAC000083800E0B82081B21548FEF700F81348032109021438FDF7FAFF10481149C7
:403C8000B830FDF7F5FF612189010F48FDF7F0FF0D480321001FFDF7EBFF0C490C48FDF7E7FF0B480B496038FDF7E2FF084801218838FDF7DDFF10BD70F02E40E20F002033
:403CC000D8102E4090890000041E2E40FF0F000058122E40209000000848017806290BD140780749002803D1486B400840004863C86A01221043C86270470000DF0F0020DA
:403D000040F02E400148007870470000DF0F002000B50300FFF7AEF8080D050D0B070507090D012000BD032000BD042000BD022000BDFF2000BD0000074A9168D26889B297
:403D4000064B92B2994204D105498A4201D1012100E000210170704780002E4033D000003FE3000010B50446FEF72AF8072C01D9FF2C01D102480470FEF71EF810BD0000EE
:403D8000DF0F00200149487070470000DC0F002010B5064A012805D01921C9021046FDF767FF10BD1D21C902F8E7000090002E4010B50A4A141D012808D009491046FDF7CF
:403DC00057FF08492046FDF753FF10BD04491046891CFDF74DFF0349491DF3E788002E4031D000003AE3000070B50C460546FDF7FFFFC0B202280E49287804D0FF2810D059
:403E00004C280CD810E0FF2809D10A4AD0680004800F032801D0087807E09069000A553803E00878207070BD4F382070087070BDDE0F002000002E40F0B50122002834D0DC
:403E4000002932D00424420600D00524792342065B06D21800D0641C034600221EE00C2516466E43124D00277519AF72104F002ABB51696007D0661EB24209D10D4E8619D2
:403E80007606760E05E05E06760E8027BE1B00E080269B198919521C2E81D2B2A242DED303480549006B002288611046F0BD00001817002079020000E80F002018B50020C3
:403EC000694608700A48006900280ED0132149014018047E684604704F21C900054800F05BF8A04201D0012018BD002018BD0000E80F00209C140020074900200C224243EF
:403F00005218927A012A05D0401CC0B20628F5D3002070470120704718170020F8B50F000446164609D01A4D1A496868A04202D94018A04201D38E4201D90120F8BD3946AA
:403F40002046FEF74FF9002820D0324639462046FEF757F90E49F0B2012620318E7600210C220B4653430A4A9A1813895568EF18A74207D9641B1B1B9672834206DAC01ACE
:403F80001469C0B2491CC9B20629E9D30020F8BD1817002079020000034610B50020024604E09C5C2018521CC0B292B28A42F8D310BD000070B500F05FF8084C064A2169FC
:403FC00007480D46FEF71DF905492846FFF734FFFFF774FF207070BD79020000E80F00209C140020002070470020054A002902D0012902D002E0906000E0D06000207047B1
:40400000E80F002070B5084C154608460549E26889182A46FEF7F5F8E0684019E06028B270BD00009C140020E80F00203EB50A226946FFF7E7FF044606480A220068694668
:40404000FEF7D0F8002802D00020C0433EBD20463EBD0000EC0F0020002802D0044A914201D2FF20704703494A6108610020704779020000E80F0020024800218160C160F5
:4040800070470000E80F002070B5074C15460548A26880182A46FFF741FFA0684019A06028B270BD9C140020E80F002010B503490A220968FFF7E8FF10BD0000EC0F002008
:4040C00010B50F4A002313600E4A13600E4B18600E4801600E49012008600E490860000290600E490C4808600D4914300860FF381538506000F0BCF800F0CAF9002010BD9B
:404100001C1000200410002030100020341000202010002010100020601800201410002028100020014610B50020002910D0094B1A689C685118A14209D258681960801870
:404140008A0704D08A07920F891A091D196010BD002010BD04100020F8B50024164E671E321F3D463168136806E01422624310328A58521C1BD0641C9C42F6D36A1C14D007
:404180002C461422544322460C3288500C214843FFF7C8FF3168002808510AD031680020103408517068401C70602846F8BD2546E4E73846F8BD000014100020F3B50026E1
:4041C000F64381B000281BDB1E490968884217D80299002914D01B4F142204463F1D54432546396810354859401C09D0FDF7E8FD38682F1F4159C359994203DBFDF7DCFDF7
:404200003046FEBD214608310091465801590C20704308180C220299FDF7F3FF0948761C001D0068C159B14200D100260549009A091D865008684159491C4151FDF7BCFD78
:404240000020FEBD10100020002803DB07490968884202D90020C043704704491422091D09685043103008587047000010100020F0B500200D4A451E0346171F50600FE0FC
:4042800014260146714314680E1DA3510C461668083433511668083435511468401C635039688842ECD30020F0BD000014100020F3B50026F64381B0002841DB234909683F
:4042C00088423DD8029900293AD0204F142204463F1D54432546396810354859401C2FD0FDF76EFD3868415900292BD0211D009146580C21005971430F46C1190C22029887
:40430000FDF77FFF11480021001D0068761C00590C34C0190160416081600C48001D00680159B14200D100260849009A091D865008684159491E4151FDF73EFD0020FEBD14
:404340003046FEBDFDF738FDFAE7000010100020FEB504460D4600201E49089E0860471E009001900290002C11D0486885420ED2002A0CD0002E0AD0642E08D808460C3057
:4043800001681C2068430C18207A002801D03846FEBD0120226020721846FFF7DDFE6060401C13D06681A6810A4827610C3067610179A94200D205710021684601810A4620
:4043C0002846029B00F040F82846FEBD00202072DDE700001C10002038B50124009400F039F838BDFEB50027164EFF433D4600240EE01C20316860430818017A002906D0BC
:404400004068FFF721FF002801D0254603E0641C3079A042EDDA681C12D01C2130684D434419FDF7CDFC69466068FFF741FF0546FDF7C2FC002DD9D1216868468847D5E77D
:40444000FEBD00002810002038B50024009400F001F838BD1FB500220C49541E0A60002811DB496888420ED808491C220C31096850430818406801A9FFF7A0FE401C02D006
:40448000002004B010BD2046FBE700001C100020F0B50021114A4D1E174611710C3F0B46BD6016E008461C2460431668041D355114680646235014680836A3551468361D9B
:4044C000A353044616680A34335318301468491C255078688142E5D30020F0BD2810002038B500210091002811DB0F49097888420DDA0D4D04010C3529680859002807D04E
:40450000201D0818694600F06FF9002801D0002038BDFDF755FC28680F34015D491E0155FDF74AFC009838BD38100020F7B582B0002502986E1E06602E48D21C0240174615
:404540002D4A2C4610460C380178106805E02301C358002B0FD0641CE4B28C42F7D3711C28D03401211D40180191039900F02AF900281FD101E02646F1E71F4801682046E7
:404580000C300F521C480399026820460E30115419480399026820460F3011540398784300F0A0F8144900280968085102D00024009011E001251AE00F480168019808183D
:4045C000009900F02CF9002801D0012502E00098C0190090641CE4B203988442ECD3002D05D10298066004480179491C0171284605B0F0BDFCFF000044100020F8B50D46F6
:4046000000216A468C461180002839DB23490978884235DA214B04010C3319680A59002A2ED020460C300B5A801C0E5C184670438018954224D3854222D2002006E00746F6
:404640005F43BF18AF4206D0401CC0B2B042F6D36046002814D0114E271DC8190C366A46294600F006F900280AD168460088012808D030682946C01900F0D1F8002803D01D
:404680000120F8BD0020F8BDFDF79AFB30680F34015D491C0155FDF78FFBF3E738100020F8B50F46002400F031F8002817D10C4900220B460C334A600EE021011D680E4629
:4046C0006A501D680C36AA53B61C1D680F31AA551D68641C6A54E4B2BC42EED31A71F8BD3810002000280BD0C01C074A81085068890053884118994203D893685160181826
:40470000704700207047000038100020F8B5064600200F4D009029700C0121466846FEF747FC00280CD129460C3100980860301B001F84B221466846FEF73AFC002801D001
:40474000FF20F8BD6C800098A8600020F8BD000038100020F8B5002827DB19490978884223DA174C05010C342168485900281CD028460C30085A009028460E300E5C401C26
:404780000E5420682F1DC01900F064F800280CD12068002445590EE0094829460C300068C01900F03CF8002801D00120F8BD00982D18641CE4B2B442EED30020F8BD0000B2
:4047C0003810002030B50D4604000BD0A800FFF789FF6060002805D000202570C0436080002030BD012030BD70B50D46040005D0002D03D00220205E002801DA012070BD62
:40480000FDF7DEFA0221615E60688900405828606088401E6080FDF7CFFA002070BD70B50D46040007D0002D05D002212078615E401E814201DB012070BDFDF7C1FA608878
:40484000401C00B26080616880000D50FDF7B4FA002070BD10B5040009D0227800216068FDF7D8FC0020C0436080002010BD012010BDF0B500231D46002802D00224045F3C
:404880000AE00120F0BD46689F00F6598E4201D1012503E05B1CDBB29C42F4DA15700020F0BD000001480078704700004C1000207CB505460024FEF70FF9A879694608701E
:4048C00000A8062229460130FDF79BFC0021684606F0D0FA0C2806D0072806D01F2806D0122806D006E0022404E0042402E0272400E0012420467CBD014801214172704734
:404900009C19002010B500F0A1F9FFF7FBF9FFF7FFF910BD70B504460025FEF7DDF8002C06D0A079012803D8214602F00BFE00E00125284670BD01460120002902D050205B
:40494000088000207047000001460120002903D00248007808700020704700004E10002001460120002905D0034854220078504308800020704700004E10002010B50246C9
:404980000D49FE204870032410460FF0CDFA002810D10FF071FA00280CD107F035FA002808D100F02FFB002804D106F009FD002800D10024204610BD4C10002070B50025C0
:4049C000044600280ED0A07901280BD8FEF784F8A0790028204602D003F0BCF903E003F091F900E00125284670BD0000014610B50120002904D006220248FDF702FC002001
:404A000010BD00005810002001460120002903D00878024908700020704700004E100020F0B589B015460F4606460124FEF754F8002E20D0002F1ED0002D1CD010223946E0
:404A40006846FDF7DEFB1022314604A8FDF7D9FB102168460FF08AF9102104A80FF086F92B46102204A9684604F062FA102128460FF07CF90024204609B0F0BD10B506F0D6
:404A800075F904F04BFB07F007F810BD0148007A704700009C19002038B504460120002C20D0617801291DD800290BD0FF25E535FEF712F80C4828180088C0B22070072842
:404AC00003D00EE0FF25CD35F2E70020694608706846FFF731F969460878012801D108202070002038BD000000102E40014A0021926810474C10002008B500226B461A7019
:404B000026280CD0094A342852680BD0352805D1900703D50021352007F052FA08BD19462620F9E7D007F9D03420F5E74C10002001490872704700009C190020F8B50446CF
:404B40000120002C26D06178012902D92278092A20D8002905D0FF25E5352078092803D004E0FF25CD35F8E708202070FDF7B4FF2078114F114E08280DD00020FFF718F9A4
:404B800070780128207810D00D4969180880FE2070700020F8BD0120FFF70AF90720B8810549203188800120F2E7B8810248217820308180EBE70000C0112E404C10002025
:404BC00000102E4070B50E46050001D0002400E00C4C002C11D0E28A500609D5D107C90F022003F0B3F9E08A40218843E08204E0D107C90F012003F0A9F93146284602F055
:404C000015FE70BDFC180020F8B50546002004460D4E009013E022466946284601F032F80098002801D00FF061F9A878214602F0C7FBA878214602F0B5FB641CE4B2308A02
:404C4000A042E8D8F8BD0000C819002038B51E4CFFF758F8042813D0052811D0062812D003282AD007280AD100206946087002460120FEF769FFFFF745F80128FBD138BDB9
:404C800000F09CFB38BD02F011FC00F097FB02F07BFC8007800F0228F4D10C4841880029F0D05B21095D0029ECD101210170A07D0140022003F04AF938BD02F0FBFB012074
:404CC000FFF750F838BD0000FC18002072100020F8B50646002403F0B7F90546304603F0CDF903460A480021068A0DE001228A401046174628401F40002803D0002F01D1D5
:404D0000224394B2491CC9B28E42EFD82046F8BDC81900201CB50020694648706846FFF7BBFE01AA69460A20FEF70EFF6946042008561CBD70B50D4601F08AFB04000BD023
:404D40002079002808D0FDF7C7FEE178A0782A4602F0F2FD002070BD022070BD0148007970470000D01800204030C07E002800D00120704700B500F001F800BD90214843ED
:404D80000749084A40186030417F491CC9B24177D289914201D300214177C8B270470000DC180020C819002013B501F051FB04000BD001F008FF002807D0214601AA0A31C8
:404DC0000620FEF7C1FE00201CBD02201CBD000010B50C4601F03CFB00280AD001F0F3FE002806D0224604490A20FEF7ADFE002010BD022010BD0000BD180020F3B581B09B
:404E0000074601460026029803F016F90446002F01D0002500E0154D002D21D0284601F04DFB032C04D13946029803F061F906463846029902F0B6FA032C06D0002C10D024
:404E40000121384601F040FC03E03146384603F05FFB284602F062F90221284602F078F9FEBD3846029902F09DFAFEBDFC18002010B5044600F04CFA002804D104F02AF8ED
:404E8000002801D00C2010BD2078611C02F06AFEFF2801D01F2010BD02F0B0FEFF280AD02178621C02F00CFA044821780068026B601C904710BD072010BD00009810002047
:404EC00010B504F007F8002801D00C2010BD02F02BFE03480068C06A8047002010BD00009810002070B50D46044610210EF03EFF1021601806460EF039FF33461022194631
:404F0000204604F015F8102130460EF02FFF02202870204606F08AF970BD0000FEB504464078217802028006870FE0781143A5780E050002360D0543304601F089FAEAB214
:404F40003B4621460096019000F0FAF90006000E14D10B48224600680199436928469847C0B2FF280AD10198EAB24030817EFF23491C81762146019800F0E1F8FEBD000076
:404F8000B41000200020704710B5044603F0A2FF002801D00C2010BD2078611C02F0E2FDFF2808D002F016FD044821780068426B601C904710BD1F2010BD000098100020C9
:404FC00010B500F06BF906F0FBF9002010BD10B5044600786178E2780843A17811430843217908436179084305D003F065FF002803D00C2010BD122010BD204602F0AAFEDB
:40500000002010BD10B5FCF7F3FE03F03FF8044803F0CCFF02F0E8FC012000F003F810BDA4180020F1B586B003A8009005A8019028489F22017B114001736846FDF766FD4F
:40504000002845D169460989C90705D0224806990068C2686846904769460989890706D5002835D11D480068816A0698884700282ED11B4E0025757075737571F575357670
:4050800075767575B570F570B5713746F5730120D03738731F20F880FF2130467972A0300176457600F014FB00242046069901F035FD002803D1641C2406240EF5D0FD7222
:4050C0000749BD72B573C0310D704D704D600D7207B0F0BD90180020B410002098100020DC18002070B505460E46084602F0ACFF0446304602F0C2FF0121A9400A462240E7
:4051000001400A4301D0012070BD002070BD10B50446084602F0B2FF0121A140014201D0012010BD002010BD10B5FEF7EBFD032804D102F0BFF90120FEF714FE10BDFEB58F
:405140001C4616460F46054601F0E8FFA878FFF711FE02460190334639460094284600F00DF8002808D1A8780199FFF72BFDFF2C02D138460EF0BAFEFEBD0000FFB585B05D
:4051800005460E980C46FF2810D02B49C00009680A5840180179C0795278814201D9012601E09006860F6846038108E06078A1788006860FE0780002014368460181284697
:4051C00001F032FD070007D021462846079A00F0EDFC384609B0F0BD304600F09BFD04AE0346039002AA29460096204600F005FC3C20405D002818D0284601F015FD012847
:4052000013D0684600890096C0B20190A878231DFF22079902F0BEFA68460089039BC2B2A878079902F064FED3E7684600890021C0B20091E9E70000B0100020F8B50026FB
:4052400000253046FFF744FD07001DD090201149704340186030447F12E0601CFCF7A6FECCB23846E040C007C00F07D02146304602F090F821463046FFF7C0FD6D1CEDB263
:405280000548018AA942E8D8761C3606360ED7D0F8BD0000DC180020C819002010B502F0A3FB0020FFF7BEFE0EF0B6FE002010BDF8B5002400F0FCF80123012800D101242A
:4052C000104F00203E4620360425082203E0002801D0002100E031460979002907D001290BD002290BD0114681402143CCB2401C0006000EEBD07C70F8BD1C43F7E72C43AF
:40530000F5E70000DC18002010B5FFF7D1FF10BD10B5044606F0B1F9002802D1601C00F001F810BD1CB500240094062269460194FCF758FF002800D1122420461CBD00009C
:40534000F8B5044600201E4617460D46002C12D0002D10D0022E0ED0032E0CD0002F0AD02179092907D0002905D013494A7F5A21095D8A4207D82089002105F08CFE2846BA
:405380000EF0B4FDFF20E18F012905D1002F03D0012E06D0002E04D0374301D10121E187F8BD0021E187069A2A70069A120A6A70AF70E970F8BD00009018002010B5FCF715
:4053C00040FC0446FEF79EFC012809D0FEF79AFC022805D0FCF73CFC2046FCF736FCEEE72046FCF732FC10BD10B50B4681791943817103D08078114602F016FD10BD10B516
:4054000082798A43827102D1807802F021FD10BD30B50C4C0220A28A0B4B9978002901D0022906D11D785B78EB18282B01D9032002E0032900D101205105490DC0020143AE
:40544000A18230BDC0112E406810002000B500F035F8002807D0012805D0032801D0042801D0002000BD012000BD000002460448018B0020C908114200D0012070470000B6
:4054800000102E40014600B50020C90701D000F00FF800BD014600B50020C90701D000F007F800BD01480068704700006010002001480088000A704720102E400448008B95
:4054C000410501D5042070474007800F7047000000102E400148406870470000601000207CB50446002568460570200610D5FFF7E5FF01280CD101A801F0ECFF6846007918
:4055000000F058FB012001F071FE0220FFF7FCFE600712D50C48017901290ED10571684601F0D8FF6846007800F078FB0220FFF7EBFE00212620FFF7DFFA044800680169A6
:40554000204688477CBD00006C1000209810002010B501460A4A007800241070FFF7A8FF0128084603D002F061FB204610BD00F0E7F80400F9D1034801210170F5E700001E
:40558000681000209C19002070B50446FFF790FF002801D00C2070BDA27B01211F48002A827801D00A4301E05208520082706279012A14D0C17849084900C170184D2868EE
:4055C000016820468847207901280CD06188208803F02EFA2080207904280FD015E0C2780A43C270EAE72868C168E01D8847E01D02F09CFB0B48008D208006E02868C168D6
:40560000E01D8847E01D02F091FB074920798870204602F019FB002070BD0000DC18002098100020901800206810002008B50178FFF73EFF814201D10C2008BD002914D051
:40564000072069460870FFF701FF012807D10121684600F0E5F8012801D0092008BDFFF7D7FE02F025FB012011E0FFF7EFFE012806D1684601F02EFF6846007800F0CEFAE4
:4056800002F00CFBFFF714FF0028FBD10220FFF73BFE002008BD000010B501460A4A007800245070FFF704FF0128084603D002F09BFB204610BD00F065F80400F9D103489E
:4056C00001214170F5E70000681000209C19002038B568460EF0A0FB002801D01F2038BD01210098C90201804180002505714571857107214173857302F0A6FA009C2022DB
:4057000000212046FCF786FD25702A460021601CFCF780FD204602F089FA204602F064FB00980EF0E3FB062200210448FCF772FD02480C388560002038BD00006C10002039
:40574000F8B5044600250D4800950078012806D068460EF061FB002803D007250CE00C250AE0074E009830602278611C401CFCF748FD3168207808702846F8BD9C190020AD
:4057800060100020F8B5044600250D4800954078012806D068460EF03FFB002803D007250CE00C250AE0074E009870602278611C401CFCF726FD7168207808702846F8BD36
:4057C0009C190020601000200346084800B5834209D8184600F03CFE002804D00089984201D1012000BD002000BD0000FF0E0000074A9179491C8906890E917138220A4043
:4058000092014907090E11430843024908407047DC180020FF0E0000C006C00E70470000F8B507460E4600240D4803E0002C01D0002500E005462979002905D0641C2406D8
:40584000240EF3D00020F8BD0021204601F066F92E712046FFF7CCFF28813C700120F8BDFC18002010B503F097FB0222002100F003F802F055F810BD10B5094B400749072C
:40588000000F090F185A595A40185043C0086421FCF78CFB002800D1012080B210BD000090650100F7B53D20405C88B015460C46002802D02878042802D200200BB0F0BD2F
:4058C0006946087200262046FFF74EFA012800D00126204603A938300191009023460327A17E34333246206A03F07AFB02A8089900900B46019120463A4603A9243003F0DF
:40590000F7FA02466846007A2870204601F0F2F81046D3E7FFB587B00C4605461078694608723D20005D1746002826D000262046FFF71AFA012800D00126204603A938307F
:40594000019100902346A17E34333246206A03F047FB02A80090291D019120462B1D03A924300A9A03F0C4FA02006846007A388002D1204601F0BEF810460BB0F0BDF0B5A5
:4059800005463C20405C89B016460C4600280CD0307869460873002806D000272046FFF7E3F9012803D003E01F2009B0F0BD012703200890204604A938300191009023461D
:4059C000E17E34333A46E06903F00AFB6846007B03A928180290009120462B46019504A92430089A03F0B8FA02466846007B3070204601F089F81046D7E7FFB505463C20DB
:405A0000405C89B016460C46002810D0084601F00BF901280BD0308869468883002809D000272046FFF7A0F9012805D005E000200DB0F0BD0220FBE70127204603A93830F2
:405A4000019100902346E17E34333A46E06903F0C7FA291D2B1D07A8129A6D4607C5204603A924300C9A03F077FA02466846808B3080204601F048F81046D9E770B50C46AB
:405A80000646FFF771F9012824D06079227900020243E079A37900020343607A921F0102207A0843E17A0D02A17A154C294335464035A24207D20A38221F904203D2FF20EA
:405AC000F43083420DD91E202873304600F0C8FB1E2070BD00222421304602F0EFFE242070BDB07801F018FE012801D0002070BD28202873304600F0B3FB282070BD00005B
:405B00007B0C0000002801D0002000E003484030C07F012800D0002070470000FC1800200146002049070ED50021084B03E0002901D0002200E01A461279022A04D0491CAA
:405B40000906090EF3D0704701207047FC1800200146002049070ED50021084B03E0002901D0002200E01A461279022A04D0491C0906090EF3D0704701207047FC18002090
:405B800010B5044680346068002803D00EF0C2F90020606010BD4030417070474030817070474030017070470171704792001018C166704770B53C2501F030FA040004D037
:405BC00020460021433001F0F5FCFF222946204600F0E8FB002C02D0A07801F0A1F970BD10B5002801D0002000E00348002802D0008905F097FA10BDFC18002010B5002832
:405C000001D0002000E00448002804D00179072901D100F047F810BDFC18002010B501F0FDF9002802D0807801F07AF910BD00207047000070B50546008A00281ED0104990
:405C4000F122097B1140C90618D5294640314A8A098A521C4A4392B2D10800D10121540801E0621A94B2A042FBD9FEF71BFE012804D1298AA878224601F014FE70BD000002
:405C80009018002010B50023054C0B60248A944204D992001018C26E0A60C36610BD0000C819002038B5044600200090A079002814D14020015D052901D00E290ED168463E
:405CC0000EF0BAF8002809D12046009902F0D4FD03481021428B2046FFF786FB38BD00009018002010B50B4604460146184602F033FA002802D020460EF002F910BD13B53B
:405D0000044601AA11460620FDF71EFF6846818861811CBD002800D10220704770470000F8B504462346401D543300909A1EA078911E01F0EBFB25464035A88A298A800076
:405D4000FCF734F9401E81B2688A884203D96982A07802F045F9698A8C20015120460021433001F027FC27480088E88103F014F9E989891C8AB26179FFF77EFD01F0D0FDEC
:405D800003F00AF92A8A6179FFF776FD074601F0BBFD688A002806D01B49088A032212021043088202E0002002F00EF91648803801886E8A002E0CD0304648431349FCF718
:405DC000DFF90004000C01D0401C80B21049488002E00F4800214180288A704381B2A07802F010F8FF2228374932B9B21346204602F022FEE98AA07801F064FFA07801F057
:405E000003FBF8BD80102E40E0112E4071020000721000207FB504468034616805460E46183108226846FCF7ECF931462031082202A8FCF7E6F9102168460DF097FF606802
:405E4000102108300DF092FF60682B46083024331022694603F06CF87FBD10B504460821FFF7CDFA10212046FFF7C9FA207905281FD006281DD008281AD12189002005F000
:405E8000C9F8072020712046FEF76EFF014620464030012913D00E21017000210176204601F050F82046FFF76BFE2046FFF7C2FE10BD20890122002105F090F8E1E705219A
:405EC000EAE70000FFB581B01F4604460821FFF796FA10212046FFF792FA2079082803D0092804D0042203E00422012501E009220025204600F05EFE2646002040363070FA
:405F000022712046FFF73CFE0398002D02D0012808D00BE001280AD120890022029905F05DF804E02189029805F074F8012700203076012F04D0204601F004F805B0F0BDCE
:405F400002983073204602F0E5FC054605480121428B2046FFF748FA002DEFD109202071ECE700009018002070B50C460546FEF7FBFE012809D108212846FFF740FA0023A7
:405F8000012221462846FFF79DFF70BD10B5044600F010FE2046FFF7F3FD00214034217010BD70B505461A24FEF7DEFE012809D108212846FFF723FA002301222146284697
:405FC000FFF780FF70BD0000F8B50446002000900E4668460DF030FF002801D00D20F8BD8420005908212030009D00F02CFA20460421383000F027FA002E02D1204600F0CB
:406000003BFE2946204602F0C2FB0E480821428B2046FFF7E9F9204601F005F825464035002808D0204600F023F8002801D0092028700020F8BD08202870204601F06EF868
:40604000F7E7000090180020014610B540310A460978082906D0092907D00A2901D100F091F810BD0B20107010BD00F001F810BD70B50446007925464035052805D00628AB
:4060800003D008280FD00C2070BD03220621204602F014FC0D480821428B2046FFF7A4F91120287010E006202873204602F032FC0646AA8A0A20424301212046FFF794F973
:4060C000002E01D109202071002070BD9018002038B504460020009068460DF0ADFE002801D00D2038BD2046009D00F0C3F908202071204600F0C0FD2946204602F07EFBBE
:4061000000213D2001550F2040210855204601F005F8002038BD00B5024600F04BFD10214032117000BD10B50446FEF71DFE012809D04020005D112805D100231A46062188
:406140002046FFF7BFFE10BD10B5FFF786FE10BD38B504460021684600910DF06DFE00280CD12046009902F0CAFB05480821428B2046FFF739F90D204034207038BD00007C
:406180009018002038B504460021684600910DF053FE002801D00D2038BD2046009902F0A3FB05480821428B2046FFF71DF90C2040342070002038BD901800200078704797
:4061C000F8B5002569460D70002801D0002400E01F4C002C18D0204600F0F5FC002813D0207903280BD005280CD026464036B18AA07801F011FEB078012806D01DE00420AE
:4062000020711DE006202071F8BD0021204601F0C0FF274680373868002802D00DF07AFE3D600020B0702079072802D12046FFF701FD0221204600F08BFF20790428E3D1AC
:40624000207A694608703420FEF756FCF8BD0000FC18002010B54C22115400F052F810BD10B50446FF21FFF7CAF809202071A07801F0F8FD10BD000038B5FF216A46118080
:40628000002801D0002400E00B4C002C12D011460620FDF759FC684601882046FFF72FFD204600F0C7FC002804D104480068C1692046884738BD0000FC180020B4100020C1
:4062C00010B504468079002809D022214C200155FF212046FFF793F8204600F012F810BD10B5037902464032002B03D01173092B02D003E0002100E02221117300F001F845
:4063000010BDFEB504460089002700902781207926464036002817D0012815D002280AD112E002AA01A9204601F004FF002807D101980DF0E5FD204601F024FF0028F0D092
:406340002046FEF761FCB776254680352868002802D00DF0DFFD2F606868002802D00DF0D9FD6F60317B002919D0009800F064F8A078002101F064F82046FFF773FAA078B1
:4063800001F0B4F9A07800F0CBFDFF212046FFF736F80B20FEF7B8FF00F0A8FCFEBD1F213173E2E7F8B517460E46054602F0F0FD04003CD020460C3001F0ECF82046062255
:4063C00000211830FBF726FF2046062200211230FBF720FF1648224600683946436A28469847074626702846FEF7BEFC012148406070002D10D02889608028464030C17845
:406400002171002E0FD169796171018AE180418A2181808A608106E00648008BC005C00F2071002060803946204604F076FDF8BD9810002000102E400A4610B5014600201D
:4064400004F088FE10BD10B50DF06CFA10BD000000B50146FFF7E0F9002801D0002000E00348002802D002898A4200D0002000BDFC18002038B5044680346068002806D1ED
:4064800068460DF0E9FC002801D100986060606838BD000010B5014600F0C6FB0128887802D0FEF76BFC10BD90214843024940186030007F10BD0000DC18002070B505461D
:4064C00004464035A87F012811D1A1789020084A484380186030067F3046FEF703FE002805D10220A877A078314601F0A9F970BDDC18002010B50C4CA07A002813D0FEF713
:406500009DFE0A48027F417F408B00F0F7FB012809D10020A07200F0F3FF05498989090B01D000F03BFA10BDAC190020DC180020A0102E4070477047490510B5490F0B0037
:40654000FCF798FC060704080C0C0F073E21FFF781FE10BD0821FFF7C3FE10BDFFF7D1FE10BDFFF7ADFE10BDF8B507460025002D01D0002600E0204E00F086FF3046403013
:4065800044890021418100F089FF304600F01BFB01282BD1A00702D52846FFF711FEE00602D52846FFF768FEA00601D5FEF746FE600601D500F054FB200602D5284600F00F
:4065C0001DF8600702D5284600F046FA380402D52846FFF713FB780402D52846FFF700FBE00703D021463046FFF7A6FF6D1C2D062D0EBCD0F8BD0000FC180020F8B5002800
:4066000001D0002400E0284C002C4BD025464035A878012846D1FF278820493700593E46002805D02149097B890601D5878AC68A2046FEF799FB012834D002F0ADFC2A8A43
:406640006179FFF719F9009001F05EF900983346283081B23A46204602F0EEF9E98AA07801F030FB12480188688A124E002810D048431149FBF784FD0004000C01D0401C8C
:4066800080B27080A07DC107C90F002001F05EFC01E000207080288A698A484381B2A07801F0B0FBF8BD0000FC1800209018002060112E4072100020710200000149096828
:4066C00009680847B410002070B50D460026194A0146002801D0002401E014462034002C26D0204600F0A0FA01280AD19020484380186030007FFEF7F5FC002801D102F038
:4067000089F80D48006881692046884700280CD020464030817EA94202D3491B817600E086762089294604F0B6FC204600F0F6FC70BD0000DC180020B410002070B5034693
:406740000088FFF785FE040013D000F03CFA00280FD02079092819D02546997840352973204602F0D7F80646A878012803D0AA8A02E0022070BDEA880A2042430121204627
:40678000FEF732FE002E01D109202071002070BD0EB5002217216B460292198100905A810120029B00990DF055FC0EBDF8B518480024807A002822D1164E0025B089000BC3
:4067C00022E0204600F06CFF1249A039401807882A462146384600F091FA012810D00E480122478305770A4944778A72002D01D0002000E02030002801D000F08FFCF8BDA2
:40680000B089000B641CE4B20028DAD1F8BD0000AC190020A0102E40DC18002010B50088FFF716FE002809D0014640310C460978082905D00B2903D00C2010BD022010BD87
:40684000FFF716FC002801D009202070002010BD70B503460088FFF7FBFD040008D0254640352878082805D00B2803D00C2070BD022070BD8420005910220830991CFBF770
:40688000C0FC2046FFF7C6FA2878082804D02046FFF778FC002801D00A202870204600F03DFC002070BD000010B50C46002121700088FFF7CDFD03000BD000F084F9002871
:4068C00007D00948F121007B0840C00603D4112010BD022010BD022020701A8A1889002104F054FC002010BD90180020F8B50F46002100910088FFF7ABFD040012D000F050
:4069000062F900280ED0E079410641D4617E02264A07002A08DB8907402500291ADA2843E07135E00220F8BD02F032FB0021017021894180A1898180217E4170E189C180E0
:406940003E7005460178134804F0CAF8284604F0C1FB1DE0204600F06DF9012806D068460DF06AFA002803D00720F8BD2A20F8BDE07900992843E071204601F0F5FF607E02
:406980000421304360760448428B2046FEF72CFD0020F8BD1D040000901800203EB500220F236C460292238100910190628169460EC900200DF04EFB3EBD0000F8B50F46EF
:4069C000054600F02BFB04002AD000F007F900282AD003202071254600264035EE76E6702046FFF79DF901F059F90920FEF78CFCA07800F069FE0121204600F0A9FB2E70AE
:406A00006E70AE703A4600212046FFF7CBFC0F49887B401C8873A078FFF750FE022012E0284601F01FFAF8BD002001F01BFA0848008B4007800F012802D1064801F076F9C6
:406A400001F036F90120FEF75FFCF8BDDC18002000102E40A010002010B5002801D0002000E0094800280DD0014640310A464978022901D100215170807DC107C90F0020F5
:406A800001F064FA10BD0000FC18002070B503460D460088FFF7DCFC04000BD000F093F8002807D01248F121007B0840C00603D4112070BD022070BD20464030418A008A72
:406AC000491C41430804C10C5888884201D2122070BD20822079072802D12046FFF7AAF8022028702089002104F078FB002070BD90180020016A491C016204D1817E491C51
:406B00004906490E81767047C169491CC16104D1C17E491C4906490EC1767047F0B5074687B003A8009005A800260D460190002F01D0002400E01B4C002C05D06846FBF71C
:406B4000E5FF002803D00BE0022007B0F0BD68460089C00704D1902200212046FBF75AFB114829460068826820469047050016D1A77066762746267140373E70204600F0BD
:406B800019F8204601F0FAFA084820820848BE77007BF121084000D001202075E682E8B2D3E70000FC180020B4100020B80B000090180020002101628176C161C176203024
:406BC0000177417770470079002805D0012803D0022801D001207047002070470F49008908820E49603108880D4A801F904210D28888121F0A3890420BD20889FF21F431FD
:406C0000884206D8074800890006C00E401F0C2801D300207047012070470000A0102E407B0C0000E0112E404030807F002800D00120704740300078002807D0012805D0C2
:406C4000052803D00E2801D0012070470020704710B5807801F012FA002800D0012010BD10B500F04DFC03498989090B01D0FFF795FE10BDA0102E4070B5054604464035DA
:406C8000A87F002825D1FF206075A0789021154A484380186030417F9023491CC9B24177A0785843104B8018DB896030994201D300214177A0789021484380186030467F52
:406CC0000677A1783046FEF70DFA002802D00120A87770BD0220A877A078314600F0B0FD70BD0000DC180020C81900200020401C0006000EFBD0002070470000F0B5164643
:406D00008207920F87B0000A02926A469080002E01D0002400E07F4C002C21D0084600F0BFFC074668468088002810D00298032817D00020009068468088218904912146ED
:406D400020310391497F0546012964D067E07248381801882046FEF7D2FF304600F060FBD6E00020029002A80DF046F8002807D03D20005D0128F3D12046FFF7BBFEC7E047
:406D80000298009068468388202B14D31F2300213846009AFCF7EAFD684680881F3885B2012305AA00213846FCF7E0FD6D1E2D042D0CF5D104E000213846009AFCF7D6FD45
:406DC0005548381801882046FEF799FF304600F027FB01AA21460098FEF764FD0028009805D00DF079F83D204C2108555EE0C677009869460078898801F00EFE002800996F
:406E0000204602D001F02CFB82E001F03EFC00980DF062F87CE0042820D3281F80B23F49097B890605D5882109594989814202D314E01B2812D9012305AA00213846FCF721
:406E400095FD6D1E2D042D0CF5D10398407F012800D07CE72046FFF74DFE78E768460CF0BBFF002802D0002007B0F0BD6846009D83882A1D00213846FCF778FD26483818C5
:406E800001882046FEF73BFF304600F0C9FA2046FFF799FE002805D026464036307E00281DD107E028460DF00DF831E02046FFF7D7F92DE00298012809D0022807D003981C
:406EC000407F0128EED12046FFF714FEEAE7034601AA21462846FEF71DFD002805D028460CF0F0FF3D203073E0E70298FEF716FF01460498287004980901000A08436870C5
:406F000068468088A870000AE8702846FFF740FC0120A9E7FC18002000102E409018002010B5074A917B002901D0491E91730021FFF7F4FD002801D0002010BD012010BDF3
:406F4000DC180020F8B5074606464037B87F00282DD0B078902100904843234945186035287F0099FEF7D3F801281ED0287F401CC4B21E48C089A04200D800240020B87726
:406F8000FF276F772F77A87702460146009800F0D7FD717DFF2903D0304601F0B0F8777501F038FC0025114F19E00320B877F8BD00200090224669463046FEF763FE00995B
:406FC000002904D0FF231A463046FEF7B8F8641CF889E4B2A04200D800246D1CEDB2F889A842E5D8F8BD0000DC180020C819002010B502460021084B03E0002901D00020EA
:4070000000E018460479944204D0491C0906090EF3D0002010BD0000FC18002000B50120FFF7E6FF00BD10B5044601F0B1FF2189018080346168416061682831816004F01E
:4070400003F810BDF7B50646087982B00C46092807D0A078F0770846FFF7E6FD012806D010E030460CF04CFF022005B0F0BDA1789020294A484380186030007FFEF732F8E0
:40708000012810D0A078FEF73DFD01280BD037780121304601F066FB25462035062F38D00B2F0FD107E06846027C21463046FEF719FE0D20D9E72046FDF756FE012801D13A
:4070C000002028772046FFF7E5F9054604AA21463046FEF754FC01205F2108556946097C002001910090A07833463A46294600F051FB69460A7CA0780323294600F0F8FE84
:40710000A0782946FDF75EFD30460CF0F9FE0020ABE70120D5E70000DC18002010B502464032937F0021002B03D1927E002A00D00121064A927A002A00D000210279092A6B
:4071400000D10121807800F021FF10BDAC19002070B50C460546FDF707FE00280BD1012C06D92879092806D02846FFF771FD0446002C02D004E0012402E0A87DC007FAD133
:40718000A87DC107C90F204600F0E0FE70BD0000012807D0082804D104480282034808300180704701488038FAE70000A0102E40014908817047000000102E4010B5044602
:4071C000FF20F130012C01D1FF20D530002200F01FFF044A108A044980B2A0430880108210BD000000102E4076100020034B198A034A89B2814311801982704700102E4009
:407200007610002010B50446012802D0082C07D102E0FF20D53001E0FF20F13000F0F0FE0348018A034A89B221431180018210BD00102E4076100020034B198A034A89B24D
